:020000040000FA
:1000000002088F8F46120056C3EF951FFDEE951E16
:10001000FCD3ED94C8EC940040074346408E1E8FFD
:100020001FAF462275E68A75A8E0220209E7120D85
:020030003D226F
:10003300020762E59154045391FB7595F875940694
:100043007593F8759206439104429122120C4D2246
:100053000206B9AFA775A71053E67FAD56AC55435B
:0D006300E6808FA7AE04AF0522439810225F
:10007300020CCA456E7465722063686172616374B1
:1000830065723A20000020505020C060601040008C
:100093000000000000702070F810F830F870700055
:1000A30000080080707070F070E0F8F870887038A5
:1000B3008880888870F070F078F88888888888F855
:1000C3007000702000400080000800300080201085
:1000D30080600000000000000040000000000000FD
:1000E3003020600000000000000020505078C890CD
:1000F30020202020200000000088608810308040ED
:10010300088888606010004088088888889080800C
:10011300888820109080D88888888888802088885C
:10012300888888084000105000200080000800489C
:1001330078800000802000000000000000400000E4
:10014300000000004020104000000000000020508C
:10015300F88010A0404010A8200000000898200854
:100163002050F080108888606020F8200808888874
:100173008088808080882010A080A8C8888888888C
:10018300802088888850881040801088001070B0C4
:100193007068704088B060309020D0B070F068B064
:1001A30070E08888888888F8402010A80000000044
:1001B300000020005070204000401070F800F8004C
:1001C30010A82010109008F0207078000040001054
:1001D300106888F08088F0F0B8F82010C080A8A8D4
:1001E30088F088F070208888A820502040401000B4
:1001F300000008C8809888E088C82010A020A8C8FC
:10020300888898C880408888885088108020081083
:100213000000000000000000F80840A8004010A8FB
:100223002060000020C8202008F808884088086063
:100233006020F82020A8F888808880808888201093
:10024300A08088988880A8A008208888A85020408B
:1002530040201000000078888088F84078882010BB
:10026300C020A88888F0788070408888A8207820EB
:1002730040201000000000000000000050F09890A3
:10028300002020202020006040882040881088889B
:10029300408810602010004000A8888888908080E3
:1002A3008888209090808888888090900820885043
:1002B300A88820804010100000008888888880402B
:1002C30008882090A0208888888008800848985053
:1002D300A85008404020100000000000000020004B
:1002E300502018680010400000400060807070F8D3
:1002F300701070704070600040080080207088F0BB
:1003030070E0F8807088706088F8888870806888EA
:10031300F0207020508820F870087000FC0078F0FE
:1003230070787040708870609070888870800880E2
:10033300F0306820508870F8302060000000000022
:1003430000000000000000000000000000000000AA
:10035300000000000000000000000000000000009A
:10036300000000000000000000000000000000008A
:10037300000000000000000000000000000000007A
:10038300000000000000000000000000000000006A
:10039300000000000000000000000000000000005A
:1003A3000000000000000000000000000000000149
:1003B3008003C007E001800180018001800180018A
:1003C3008001800180BB010689828A83E02250027A
:1003D300E722BBFE02E32289828A83E49322BB01E4
:1003E3000CE58229F582E5833AF583E0225006E99C
:1003F3002582F8E622BBFE06E92582F8E222E582A1
:1004030029F582E5833AF583E49322E88FF0A4CCBF
:100413008BF0A42CFCE98EF0A42CFC8AF0EDA42C28
:10042300FCEA8EF0A4CDA8F08BF0A42DCC3825F0F7
:10043300FDE98FF0A42CCD35F0FCEB8EF0A4FEA9E2
:10044300F0EB8FF0A4CFC5F02ECD39FEE43CFCEAEF
:10045300A42DCE35F0FDE43CFC2275F00875820036
:10046300EF2FFFEE33FECD33CDCC33CCC58233C576
:10047300829BED9AEC99E58298400CF582EE9BFE07
:10048300ED9AFDEC99FC0FD5F0D6E4CEFBE4CDFA62
:10049300E4CCF9A88222B800C1B90059BA002DEC06
:1004A3008BF084CFCECDFCE5F0CBF97818EF2FFF9E
:1004B300EE33FEED33FDEC33FCEB33FB10D7039946
:1004C3004004EB99FB0FD8E5E4F9FA227818EF2FF3
:1004D300FFEE33FEED33FDEC33FCC933C910D70512
:1004E3009BE99A4007EC9BFCE99AF90FD8E0E4C931
:1004F300FAE4CCFB2275F010EF2FFFEE33FEED3361
:10050300FDCC33CCC833C810D7079BEC9AE899408D
:100513000AED9BFDEC9AFCE899F80FD5F0DAE4CDEF
:10052300FBE4CCFAE4C8F922EB9FF5F0EA9E42F033
:10053300E99D42F0E89C45F022E8600FECC313FC10
:10054300ED13FDEE13FEEF13FFD8F1228E2E8F2F46
:100553008D308B31AB32AA33A9341203C870030236
:1005630006B8F536C3648094A04009D3E5366480A9
:1005730094FF4003753620E53575F008A4FFC37476
:10058300809FFFE530D39F40030206A0AF36EF33D1
:1005930095E0FE75F064E531A42FF582E5F03EF5B4
:1005A30083E5822425F582E583340DF583E493FB0B
:1005B300E4F53BF53AF539F538FAEB20E0030206AA
:1005C30041E535B4011DAF3BAE3AAD39AC38F9F86E
:1005D30012053CEFF53BEEF53AEDF539EC4480F5C9
:1005E300388072E535B4021DAF3BAE3AAD39AC3855
:1005F300F9F812053CEFF53BEEF53AEDF539EC442D
:10060300C0F5388050E535AF3BAE3AAD39AC38B4C0
:100613000315F9F812053CEFF53BEEF53AEDF53924
:10062300EC44E0F538802EA935A80112053CEFF51E
:100633003BEEF53AEDF539EC44F0F5388017AF3B76
:10064300AE3AAD39AC38A935A80112053C8F3B8EC3
:100653003A8D398C38EBC313FB0AEA640860030252
:1006630005BDE4FAEAC395355033EA75F008A4FFF3
:10067300C374189FF537EA75F008A42530FDC0054B
:10068300AF3BAE3AAD39AC38A937A80112053CAB44
:1006930007D005AF2FAE2E12091B0A80C7740125A0
:1006A30034F534E43533F533E53575F006A42530F8
:1006B300F53002055722C0E0C0F0C083C082C0D02D
:1006C30075D000C000C001C002C003C004C005C093
:1006D30006C007754C00754B00754A00754900C28A
:1006E300EDAFBDAEBEE4FCFDE5172FF517E5163EF5
:1006F300F516ED3515F515EC3514F514E519151941
:1007030070021518E5194518703AF5187519018521
:10071300174C85164B85154A851449F517F516F5BB
:1007230015F5147FE47E0CAB4CAA4BA94AA84912D9
:10073300040EE47BFF7A03F9F81204998F1D8E1CD3
:100743008D1B8C1AD007D006D005D004D003D0025D
:10075300D001D000D0D0D082D083D0F0D0E032C04E
:10076300E0C0F0C083C082C0D075D000C000C0011B
:10077300C002C003C004C005C006C00775A720E5BA
:10078300F854F0F4440F52F8AF9BEF30E34DE54DCE
:100793006031E5A120E02C3001138551828550831F
:1007A300E5A3F00551E55170070550800385A326A5
:1007B300D54D0D300305300002D2FA120C398003F7
:1007C300854D4FE54E601430F911300209A852E20D
:1007D300F5A30552800375A300154ED007D006D0AC
:1007E30005D004D003D002D001D000D0D0D082D025
:1007F30083D0F0D0E032D2997BFF7A007976752BE3
:10080300017D0C120984120CB98F0974242511F58A
:100813008274003510F583E509F00511E5117002C6
:100823000510C3950FE50E6480F8E51064809840C9
:1008330043751000751101050BE50B7002050A7570
:100843000C00750D01C3E50D950FE50E6480F8E509
:100853000C64809850187424250DF5827400350CAF
:10086300F583E4F0050DE50D70DB050C80D79000F2
:1008730024E509F07B017A007924E50B240275F065
:100883000CA4FD752B011209840207FB787FE4F6A3
:10089300D8FD7581570208D6020CA8E493A3F8E4A7
:1008A30093A34003F68001F208DFF48029E493A3C5
:1008B300F85407240CC8C333C4540F4420C88340DE
:1008C30004F456800146F6DFE4800B0102040810AD
:1008D300204080900A46E47E019360BCA3FF543F0E
:1008E30030E509541FFEE493A360010ECF54C025E5
:1008F300E060A840B8E493A3FAE493A3F8E493A3D5
:10090300C8C582C8CAC583CAF0A3C8C582C8CAC538
:1009130083CADFE9DEE780BEED131313541F2FF5FF
:100923003DE43EF53C853D82F583C083C082ED54B2
:1009330007F9E47EFFA801088005CEC313CE13D8C0
:10094300F9F4FFEEF4FEE05EFEA3E05FFFD082D099
:1009530083EEF0A3EFF0853D82853C83C083C082A4
:10096300EBFEE4A801088005CEC313CE13D8F9FF2C
:10097300E04EFEA3E04FFFD082D083EEF0A3EFF072
:10098300228B278A2889298D2AE4F52C7E007F145F
:10099300120C867E007F14852732852833852934FF
:1009A300852B35AB2C7D0412054F752D01E52B24CA
:1009B30001FFE433FEC3E52D9FEE6480F874809855
:1009C3005018E52C852BF0A4252A252DFF7B017AD1
:1009D300007914120AEE052D80D3052CE52CC3945F
:1009E3000840A922C0E0C0F0C083C082C0D075D047
:1009F30000C000C001C002C003C004C005C006C0DF
:100A03000753C87F53C8FBE553B401127553027FE4
:100A1300008554257B02E4FDFC120A9C800AE55301
:100A2300B40305C2A6755300D007D006D005D00481
:100A3300D003D002D001D000D0D0D082D083D0F068
:100A4300D0E032021E0000015300015400025500A1
:100A530000C100C103C104C101C102014D00014E27
:100A630000014F0001520002500000041400000076
:100A73000002180001020E0014021000000212000E
:100A830000540024000000000000000000000000EB
:100A930000000000000000000085254D85254E85DF
:100AA300254F8F528C508D51EB139201EBA2E192A3
:100AB30002AFA775A720200403120C97439A04538F
:100AC300F80F539BEF439A08300305300002C2FA34
:100AD30030F915E54E6011300209A852E2F5A3057D
:100AE300528003E4F5A3154E8FA7228F2E8B2F8AF6
:100AF3003089317F801200038F32E52E04FF120B01
:100B0300DA8F33E4FFAB2FAA30A9318F82758300CC
:100B13001203E1FE74342FF8A6060FBF10E7E4F5C5
:100B230044F545FB7A0079327D14020B308B468AFB
:100B3300478948E55370FC7553018D54E4FFEFC3B7
:100B43009D5018AB46AA47A9488F827583001203AC
:100B5300E1FE74002FF8EEF20F80E3AFA7E4F5A7F0
:100B630075CFFF75CEF4D2A643C8048FA7228F2872
:100B73008D29E52960057529FF8003E4F5297F8028
:100B83001200038F2AE52804FF120BDA8F2BE4FFF0
:100B9300742C2FF8A6290FBF10F6E4F53CF53DFBA6
:100BA3007A00792A7D14020B3085A727120D0212D1
:100BB3000D0C120D16120D20120CE8120C60120D02
:100BC30034120C73120036120D2A120CF512006C3B
:100BD3001200248527A722EF540FC454F0FEEF54CC
:100BE300F0C4540F4EFF543325E025E0FEEF54CC00
:100BF3001313543F4EFF545525E0FEEF54AAC3137D
:100C03004EFF22AB07AA061200568F828E83120074
:100C130056C3EF9582FFEE9583FEC3EF9BEE9A409A
:100C2300ED22E4F527E4FDAF27120B710527E52735
:100C3300C3948040F022755303AFA7E4F5A775CFA3
:100C4300FF75CEFC43C8048FA722BF0A083099FD65
:100C5300C29975990D3099FDC2998F992275B30187
:100C630075BB0D75DF3F75BC0875B98143E88022FC
:100C7300AF885388AFEF5440FEEF54104E4288754F
:100C83008D9622E4FDEF2DF582E43EF583E4F00D2D
:100C9300BD10F222E5A1A2E69203E5F8540C24FF6D
:100CA3009200D20422120BACD2AFD299C2A2120C80
:100CB300DA1207F980FE10060B12002EBF0D027F19
:100CC3000A02004FAF5722C0E053917F0556E55605
:100CD30070020555D0E032C2A6D2B47F0A7E00125C
:100CE3000C06020C25E4F5A775E34075E10375E2F4
:100CF300032275A20B43A14053F8F343F80122E406
:100D0300F5A77597DE7597AD2275A45075D40F7549
:100D1300FE042275A57175F27D75D58E2275A648E0
:100D230075A72075CC0822758E08758920438840E5
:100D330022E4F5A9E5A930E7FB223098FDAF99C27B
:100D430098220020505020C0606010400000000036
:100D53000000702070F810F830F870700000080080
:100D630080707070F070E0F8F87088703888808850
:100D73008870F070F078F88888888888F870007038
:100D830020004000800008003000802010806000B8
:100D93000000000000004000000000000030206060
:100DA3000000000000000020505078C89020202050
:100DB3002020000000008860881030804008888868
:100DC3006060100040880888888890808088882028
:100DD300109080D888888888888020888888888828
:100DE3000840001050002000800008004878800070
:100DF3000080200000000000000040000000000010
:100E030000402010400000000000002050F8801037
:100E1300A0404010A820000000089820082050F0AF
:100E230080108888606020F820080888888088807F
:100E33008080882010A080A8C8888888888020881F
:100E4300888850881040801088001070B0706870D7
:100E53004088B060309020D0B070F068B070E08807
:100E630088888888F8402010A8000000000000202F
:100E7300005070204000401070F800F80010A820C7
:100E830010109008F020707800004000101068885F
:100E9300F08088F0F0B8F82010C080A8A888F08807
:100EA300F070208888A820502040401000000008DF
:100EB300C8809888E088C82010A020A8C88888988F
:100EC300C88040888888508810802008100000005F
:100ED3000000000000F80840A8004010A8206000AF
:100EE3000020C8202008F80888408808606020F89F
:100EF3002020A8F8888088808088882010A0808897
:100F0300988880A8A008208888A8502040402010F6
:100F130000000078888088F84078882010C020A8D6
:100F23008888F0788070408888A820782040201036
:100F330000000000000000000050F0989000202006
:100F43002020200060408820408810888840881036
:100F5300602010004000A8888888908080888820BE
:100F630090908088888880909008208850A8882056
:100F730080401010000000888888888040088820FE
:100F830090A02088888880088008489850A8500836
:100F930040402010000000000000002000502018F6
:100FA300680010400000400060807070F87010709E
:100FB300704070600040080080207088F070E0F896
:100FC300807088706088F8888870806888F02070E6
:100FD30020508820F870087000FC0078F07078705A
:100FE30040708870609070888870800880F03068E6
:100FF30020508870F83020600000000000000000DE
:1010030000000000000000000000000000000000DD
:1010130000000000000000000000000000000000CD
:1010230000000000000000000000000000000000BD
:1010330000000000000000000000000000000000AD
:10104300000000000000000000000000000000009D
:10105300000000000000000000000000000000008D
:0210630000008B
:00000001FF
