:020000040000FA
:10000000020184E709F608DFFA8046E709F208DF13
:10001000FA803E88828C83E709F0A3DFFA8032E31E
:1000200009F608DFFA8078E309F208DFFA807088C1
:10003000828C83E309F0A3DFFA806489828A83E0FB
:10004000A3F608DFFA805889828A83E0A3F208DFEA
:10005000FA804C80D280FA80C680D4806980F28099
:1000600033801080A680EA809A80A880DA80E280BF
:10007000CA803389828A83ECFAE493A3C8C582C814
:10008000CCC583CCF0A3C8C582C8CCC583CCDFE97E
:10009000DEE7800D89828A83E493A3F608DFF9EC1A
:1000A000FAA9F0EDFB2289828A83ECFAE0A3C8C5A5
:1000B00082C8CCC583CCF0A3C8C582C8CCC583CCCC
:1000C000DFEADEE880DB89828A83E493A3F208DF3B
:1000D000F980CC88F0EF60010E4E60C388F0ED240B
:1000E00002B4040050B9F582EB2402B4040050AF0E
:1000F000232345822390005373C2D5EC30E709B225
:10010000D5E4C39DFDE49CFCEE30E715B2D5E4C315
:100110009FFFE49EFE12012FC3E49DFDE49CFC8042
:100120000312012F30D507C3E49FFFE49EFE22BCDB
:10013000000BBE0029EF8DF084FFADF022E4CCF877
:1001400075F008EF2FFFEE33FEEC33FCEE9DEC98DC
:100150004005FCEE9DFE0FD5F0E9E4CEFD22EDF862
:10016000F5F0EE8420D21CFEADF075F008EF2FFF05
:10017000ED33FD4007985006D5F0F222C398FD0FED
:10018000D5F0EA22787FE4F6D8FD7581170201CB1D
:10019000020284E493A3F8E493A34003F68001F2FF
:1001A00008DFF48029E493A3F85407240CC8C33370
:1001B000C4540F4420C8834004F456800146F6DF3F
:1001C000E4800B010204081020408090034CE47E80
:1001D000019360BCA3FF543F30E509541FFEE49334
:1001E000A360010ECF54C025E060A840B8E493A3FB
:1001F000FAE493A3F8E493A3C8C582C8CAC583CA26
:10020000F0A3C8C582C8CAC583CADFE9DEE780BEDD
:100210008E0A8F0BE4F50CF50D780E7C00FD7BFF4C
:100220007A037952FE7F081200D3E4FBFAE50B450E
:100230000A6030AE0AAF0B7C007D021200F98C0C14
:100240008D0DAE0AAF0B7C007D021200F98E0A8F75
:100250000BEB25E0240EF8A60C08A60D0BBB000145
:100260000A80CAE50E450F24FF9284E5104511244B
:10027000FF9285E512451324FF9286E51445152467
:10028000FF92872212033B12031443E3407F017E57
:10029000001202107F047E001202CE1203247F019E
:1002A0007E001202CE2082FDE4F508F50912032437
:1002B0000509E50970020508C3940FE508648094F8
:1002C0008040EA1202FA1202FA1202FA80D7EF64B0
:1002D000014E7005D280D28122EF64024E7005D2A9
:1002E00080C28122EF64034E7005C280D28122EF6A
:1002F00064044E7004C280C28122E4FFFEC3EF9505
:1003000017E5166480F8EE64809850070FBF00016F
:100310000E80EA2285A70A12033112034512035107
:10032000850AA722C2901202FAD2901202FAC29053
:1003300022E4F5A775A4F375D4F322E4F5A7759725
:10034000DE7597AD2275A50975D50922021661A83B
:0A0350000022000000000000000081
:00000001FF
