:020000040000FA
:1000000002031FE709F608DFFA8046E709F208DF76
:10001000FA803E88828C83E709F0A3DFFA8032E31E
:1000200009F608DFFA8078E309F208DFFA807088C1
:10003000828C83E309F0A3DFFA806489828A83E0FB
:10004000A3F608DFFA805889828A83E0A3F208DFEA
:10005000FA804C80D280FA80C680D4806980F28099
:1000600033801080A680EA809A80A880DA80E280BF
:10007000CA803389828A83ECFAE493A3C8C582C814
:10008000CCC583CCF0A3C8C582C8CCC583CCDFE97E
:10009000DEE7800D89828A83E493A3F608DFF9EC1A
:1000A000FAA9F0EDFB2289828A83ECFAE0A3C8C5A5
:1000B00082C8CCC583CCF0A3C8C582C8CCC583CCCC
:1000C000DFEADEE880DB89828A83E493A3F208DF3B
:1000D000F980CC88F0EF60010E4E60C388F0ED240B
:1000E00002B4040050B9F582EB2402B4040050AF0E
:1000F000232345822390005373C2D5EC30E709B225
:10010000D5E4C39DFDE49CFCEE30E715B2D5E4C315
:100110009FFFE49EFE1202CAC3E49DFDE49CFC80A6
:10012000031202CA30D507C3E49FFFE49EFE22E318
:10013000F5F009E208B5F06D606B80F3E3F5F009C6
:10014000E608B5F060605E80F387F009E608B5F078
:1001500054605280F487F009E208B5F048604680A8
:10016000F488828C8387F009E0A3B5F0386036808C
:10017000F488828C8387F009E493A3B5F027602587
:1001800080F388828C83E3F5F009E0A3B5F0166074
:100190001480F388828C83E3F5F009E493A3B5F02F
:1001A00004600280F202025A808580E7808E80D24D
:1001B000803C8015806C807E809B80B5808B80A188
:1001C000804F8070803A02026689828A83ECFAE46A
:1001D00093F5F0A3C8C582C8CCC583CCE493A3C86B
:1001E000C582C8CCC583CCB5F070606E80E18982D1
:1001F0008A83E493F5F0A3E208B5F05E605C80F2D8
:1002000089828A83E0F5F0A3E608B5F04D604B8063
:10021000F389828A83E0F5F0A3E208B5F03C603A06
:1002200080F389828A83E493F5F0A3E608B5F02A87
:10023000602880F2805389828A83ECFAE493F5F097
:10024000A3C8C582C8CCC583CCE0A3C8C582C8CC2E
:10025000C583CCB5F004600280E27FFFB5F0020FE9
:100260002240027F012289828A83ECFAE0F5F0A322
:10027000C8C582C8CCC583CCE0A3C8C582C8CCC5DC
:1002800083CCB5F0D560D380E389828A83ECFAE031
:10029000F5F0A3C8C582C8CCC583CCE493A3C8C578
:1002A00082C8CCC583CCB5F0B160AF80E288F0EDF8
:1002B0002402B4040050A3F582EB2402B4040050DD
:1002C0009923234582239001A873BC000BBE00290B
:1002D000EF8DF084FFADF022E4CCF875F008EF2F3D
:1002E000FFEE33FEEC33FCEE9DEC984005FCEE9DFA
:1002F000FE0FD5F0E9E4CEFD22EDF8F5F0EE842016
:10030000D21CFEADF075F008EF2FFFED33FD400776
:10031000985006D5F0F222C398FD0FD5F0EA227866
:100320007FE4F6D8FD758115020366020487E49325
:10033000A3F8E493A34003F68001F208DFF48029D8
:10034000E493A3F85407240CC8C333C4540F4420C7
:10035000C8834004F456800146F6DFE4800B0102B6
:1003600004081020408090051EE47E019360BCA329
:10037000FF543F30E509541FFEE493A360010ECF04
:1003800054C025E060A840B8E493A3FAE493A3F82E
:10039000E493A3C8C582C8CAC583CAF0A3C8C582EE
:1003A000C8CAC583CADFE9DEE780BE8E088F09E4CC
:1003B000F50AF50B780C7C00FD7BFF7A0479E8FEEA
:1003C0007F081200D3E4FBFAE50945086030AE0867
:1003D000AF097C007D021200F98C0A8D0BAE08AFCC
:1003E000097C007D021200F98E088F09EB25E024BC
:1003F0000CF8A60A08A60B0BBB00010A80CAE50C84
:10040000450D24FF9284E50E450F24FF9285E510EB
:10041000451124FF9286E512451324FF9287227B23
:10042000FF7A0479E28B088A09890AA801AC02AD37
:10043000037BFF7A0479D71202ADEF6005C280C258
:100440008122A80AAC09AD087BFF7A0479DB12028D
:10045000ADEF6005C280D28122A80AAC09AD087B4D
:10046000FF7A0479DE1202ADEF6005D280C28122EC
:10047000A80AAC09AD087BFF7A0479E21202ADEF5D
:100480006004D280D281221204F043E3407F027ED6
:10049000001203AB2082FD12041F1205007BFF7ABD
:1004A0000479D71204251205007BFF7A0479DE1245
:1004B000042512050012041F12050080D7E4FFFE78
:1004C000C3EF9515E5146480F8EE64809850070F2B
:1004D000BF00010E80EA2253554D004F5200414E9D
:1004E0004400524553455400000000000000000045
:1004F00085A70812050D1205171205238508A722E6
:100500001204BDD2901204BDC2900204BDE4F5A74E
:1005100075A4F375D4F32275A50175D501220214D3
:0405200061A80022AC
:00000001FF
